01REMESSA01COBRANCA       025600777773        SUA RAZÃO SOCIAL qwer        341BANCO ITAU SA  150717                                                                                                                                                                                                                                                                                                      000001
10200746068000114025600777773    00001000                     000010000000000000000157                     I011000      03071700000000234003410000099N150717050900000000000100307170000000000000000000000000000000000000000200000000000000ELSON LIMA                              1234                                    1234        123412341234           12SUA RAZAO SOCIAL QWER             03071710 000002
10200746068000114025600777773    00001001                     000010010000000000000157                     I011001      15071700000000123413410000099N1507170509000000000001015071700000000000000000000000000000000000000002412341232222221234123                                 1234                                    1234        1234123412341234       12SUA RAZAO SOCIAL QWER             15071710 000003
9                                                                                                                                                                                                                                                                                                                                                                                                         000004
