01REMESSA01COBRANCA       025600777773        SUA RAZÃO SOCIAL qwer        341BANCO ITAU SA  150717                                                                                                                                                                                                                                                                                                      000001
10200746068000114025600777773    00001002                     000010020000000000000157                     I011002      15071700000000123413410000099N1507170509000000000001015071700000000000000000000000000000000000000002412341232222221234123                                 1234                                    1234        1234123412341234       12SUA RAZAO SOCIAL QWER             15071710 000002
9                                                                                                                                                                                                                                                                                                                                                                                                         000003
